{
  "name": "1559-sepolia",
  "tx": {
    "type": "0x2",
    "chainId": "11155111",
    "nonce": "10",
    "to": "0x9858EfFD232B4033E47d90003D41EC34EcaEda94",
    "value": "500000000000000000",
    "data": "0x1234",
    "gas": "100000",
    "maxFeePerGas": "5000000000",
    "maxPriorityFeePerGas": "500000000"
  },
  "expected": {
    "raw_tx": "0x02f87983aa36a70a841dcd650085012a05f200830186a0949858effd232b4033e47d90003d41ec34ecaeda948806f05b59d3b20000821234c001a0bcf1927d54b06759bc402f871181cffdb5d5c2ab0fa88fad5bcd85a1b7c40525a04630e5051336461070b80ef89caed2b6387007402bfa172539db1a915b167266",
    "tx_hash": "0xe6e2c791974afc1be94a3a09ab9200e08a73a85de21a5f003ec3439bcd80dced",
    "r": "0xbcf1927d54b06759bc402f871181cffdb5d5c2ab0fa88fad5bcd85a1b7c40525",
    "s": "0x4630e5051336461070b80ef89caed2b6387007402bfa172539db1a915b167266",
    "v": "0x1"
  },
  "meta": {
    "oracles": {
      "ethers": "6.16.0",
      "cast": "not-run-in-this-env"
    },
    "regenerated_at": "2026-06-11T00:00:00Z"
  }
}
