{
  "name": "legacy-sepolia",
  "tx": {
    "type": "0x0",
    "chainId": "11155111",
    "nonce": "5",
    "to": "0x9858EfFD232B4033E47d90003D41EC34EcaEda94",
    "value": "1000000000000000000",
    "data": "0xabcdef",
    "gas": "100000",
    "gasPrice": "1000000000"
  },
  "expected": {
    "raw_tx": "0xf87305843b9aca00830186a0949858effd232b4033e47d90003d41ec34ecaeda94880de0b6b3a764000083abcdef8401546d72a0e5a3f3fdda15890da442849fdcd6fc5466440754086ada1478714b8969d485e5a00f811b4a2d46022850dc1dc29ea1f7a63cd54d177aed392d373150db5f4a37f3",
    "tx_hash": "0x000f178bc85c54df1e14b57a7bb1da73861d862e9a6cd5c13a2528b35700922c",
    "r": "0xe5a3f3fdda15890da442849fdcd6fc5466440754086ada1478714b8969d485e5",
    "s": "0x0f811b4a2d46022850dc1dc29ea1f7a63cd54d177aed392d373150db5f4a37f3",
    "v": "0x1546d72"
  },
  "meta": {
    "oracles": {
      "ethers": "6.16.0",
      "cast": "not-run-in-this-env"
    },
    "regenerated_at": "2026-06-11T00:00:00Z"
  }
}
